:04000000020049327F
:03000B000200FBF5
:0100130032BA
:01001B0032B2
:0100230032AA
:01002B0032A2
:01003300329A
:01003B003292
:030043000200BCFC
:0300B900020046FC
:0300460002013A7A
:2000BC00C021C0E0C0F0C082C083C007C006C005C004C003C002C001C000C0D075D000126B
:2000DC0004FED0D0D000D001D002D003D004D005D006D007D083D082D0F0D0E0D02132C0CE
:2000FC0021C0E0C0F0C082C083C007C006C005C004C003C002C001C000C0D075D0001201EA
:20011C0090D0D0D000D001D002D003D004D005D006D007D083D082D0F0D0E0D021321201AC
:11013C007E1201A8120776120F24D2AF120F5A80FB2E
:20014D00AE82AF83EE4F6011E5C330E7FBE5C320E7FB1EBEFF011F80EB22C2A9781B868290
:20016D00088683D2A92275A15575A1AA2275A1002275A15575A1AA74F855B94406F5B9752D
:20018D00A10022758A30758CF8781B8606088607781B74012EF6E43F08F622758A30758C14
:0F01AD00F8438901781BE4F608F6D2A9D28C2218
:1801BC0075E200C2AF90000112014D02380075A15575A1AA43B11022E7
:2001D400227F10EF6004001F80F922A290B39200E433F53F758200120ECAA291B39200E44E
:2001F40033F53F758201120ECAA292B39200E433F53F758202120ECAA294B39200E433F574
:200214003F758203120ECAA295B39200E433F53F758204120ECAA296B39200E433F53F75BE
:200234008205120ECAA2B2B39200E433F53F758206120ECAA2B4B39200E433F53F7582078A
:12025400120ECAA2B0B39200E433F53F758208020ECAF3
:201FF40006010000190100001B010000E93A0000F13A0000F1380000160A00003D040000B8
:202014004C050000000000010000000204000000050000000600000007000000080000003A
:20203400090000000A0000000B0000000C000000FFFFFFFF00C830E0240000002500000045
:20205400260000002100000022000000230000001E0000001F000000200000002C00010056
:20207400FFFFFFFF012C01000000000000E9330000E92D0000F12D0000002A09000100019D
:05209400450A020304EF
:20026600900116E024F750067E087F008008900116E0FDFE7F008EDDE5DD602B85086085C8
:20028600096175628085DD637564009000F875F000121EE6900116E0C395DDF0E5DD25085B
:2002A600F508E43509F5092275DCC0900116E4F09000F975F000121F9CFF24F45003020442
:2002C6006AEF240A83F582EF241083F583E473A8B56A246A75ED6A9B866A4603030404041E
:2002E600030204030304049000FB75F000121F9CFFBF0102800ABF02028013BF2249801CBD
:200306009001167412F07508997509208039900116743BF07508AB750920802B9000FC7595
:20032600F000121F9CFF6005BF011C800E900116742DF07508E6750920800C900116741537
:20034600F0750813750921900116E0700302046A9000FE75F000121F9CFF900116E0FEC307
:20036600EF9E5005900116EFF043D1020202669000FA75F000121F9C900116F053D1FD22F9
:20038600E5E3547FFF9000FA75F000121F9C0354804FF5E322E5E32354019000F8F075DDD7
:2003A60001229000F8E4F09000F9F075DD02229000F8E0FFBFA102800302046A9000FC750C
:2003C600F000121F9CFF6008BF0102802A02046A7F00BF0800501CEF24F8FDE43400FEEF58
:2003E6002402F582E43401F583E0FC8D828E83F00F80DF75DD08227F00BF0800501CEF242E
:20040600F8FDE43400FEEF240CF582E43401F583E0FC8D828E83F00F80DF75DD082290003E
:20042600F8E0FFBFA13E9000FC75F000121F9CFF60028030A201E4339000F8F075DD0122CB
:200446009000F8E0FFBF211C9000FC75F000121F9CFF6002800E9000FA75F000121F9C24A6
:20046600FF92012243DC0F22900116E0700122E5D130E10712026663DC4022748055E3FF44
:20048600900116E04FF5E32222AF82C2EAEF2402F582E43401F583E0FFD2EA8F8222AF826B
:2004A600C2EAEF2402F582E43401F583E50AF0D2EA0204BA53D2FC2253D2FCE5D230E1FBEB
:2004C6002274FC55D24402F5D222AF82C2EAEF75F002A4240CF582740135F0F583E560F069
:2004E600E561A3F0D2EA53D4FCE5D430E1FB2274FC55D44402F5D42220D90302075375DDE3
:2005060000E5D9540FFFADD95305307E00BD0006BE0003020751BD2006BE000302070EBDD3
:200526003005BE00028003020751EF600302075175DCC0900116E4F09000F975F000121F8C
:200546009CFE24F45003020709EE240A83F582EE241083F583E4733C4B09BE090075092CF3
:200566001409E30606070607060507060607069000FB75F000121F9CFEBE0102800ABE0264
:20058600028013BE2249801C9001167412F07508997509208039900116743BF07508AB758E
:2005A6000920802B9000FC75F000121F9CFE6005BE011C800E900116742DF07508E67509BE
:2005C60020800C9001167415F0750813750921900116E070030207099000FE75F000121FEA
:2005E6009CFE900116E0FDC3EE9D5005900116EEF043D1021202660207519000FA75F000D6
:20060600121F9CFE900116F053D1FD020751E5E3547FFE9000FA75F000121F9C035480FDCE
:200626004EF5E3020751E5E3235401FE9000F8F075DD010207519000F8E4F09000F9F07587
:20064600DD020207519000F8E0FEBEA10280030207099000FC75F000121F9CFE6008BE011C
:2006660002802C0207097E00BE0800501CEE24F8FCE43400FDEE2402F582E43401F583E0ED
:20068600FB8C828D83F00E80DF75DD080207517E00BE0800501CEE24F8FCE43400FDEE244D
:2006A6000CF582E43401F583E0FB8C828D83F00E80DF75DD080207519000F8E0FEBEA1430E
:2006C6009000FC75F000121F9CFE60028035A201E433FE9000F8F075DD010207519000F8DC
:2006E600E0FEBE211E9000FC75F000121F9CFE600280109000FA75F000121F9CFE24FF92FC
:2007060001804843DC0F8043BF0002800ABF01028027BF0236802C900116E0602EE5D130C7
:20072600E10812026663DC408021748055E3FF900116E0FE4FF5E3801274FC55D24402F5F5
:20074600D2800874FC55D44402F5D4C2D930D813900116E4F0D20175DC0275E300C2DAC284
:20076600D9C2D810DA0122E5DA20E20375D8FF2243E20653E2FD7F08EF60471FEF24F8F528
:2007860082E43400F583E4F0EF2402F582E43401F583E4F08F057E00756002F5618D828EA0
:2007A60083C007121FB8AD82AE83D007ED2DFDEE33FEED240CF582EE3401F583E4F0A3F0FD
:2007C60080B6900116E4F0D20175E22975D18175DD0075ECF875ED0075D30875EE0275EF22
:1C07E6000175D21275EA4075D50875E40C75E50175D41A75EB0475E107D2EA22EA
:202099001201100100000008FECABEBA00010000000109023B00020100C032090400000170
:2020B90003010100092111010001222D000705810308000109040100010300000009211190
:2020D9000100012215000705820308000105010906A101050719E029E71500250175019502
:2020F90008810295017508810195067508150025650507190029658100C0050C0901A1013F
:0F2119007510950426FF0319002AFF038100C0EB
:0700A2009000EBE4F0A3F075
:200802009000EBE0FEA3E08E82F58322AC82AD83AEF0FFC007C006C005C004121D7CE5822D
:20082200D004D005D006D0076004758202228C828D838EF0EF1219DCE5826004758201226A
:2008420075820022AF827E007D02BD080050378D82C007C006C00512048FAC82D005D00624
:20086200D007ECB5070AEE540F60028003ED4206EC7010EE54F0600280098D04ECC454F074
:20088200FC42060D80C48E8222AF827E007D08ED70030209311D8DF005F07B017C008006B2
:2008A200EB2BFBEC33FCD5F0F78F017A00E95203EA5204EB4C604BE522601DED24EFFBE481
:2008C2003400FCED24EFF582E43400F583E0FA0A8B828C83EAF0802AED24EFFBE43400FC4C
:2008E2008B828C83E0601BED24EFFBE43400FCED24EFF582E43400F583E0FA1A8B828C8359
:20090200EAF0ED24EFFBE43400FC8B828C83E060067B017C0080047B007C008D048CF00505
:20092200F0EB800225E0D5F0FBFB4206020891758200C00612048FAF82D006EFB50601227F
:200942008E0A7582000204A4AF82758200C00712048FAE82D0077D00E5236005EF4EFD801D
:20096200327F08EF602D1FEF24EFFBE43400FC8B828C83E060067B017C0080047B007C003B
:200982008F048CF005F0EB800225E0D5F0FBFB420580D0EEB50501228D0A7582000204A48A
:2009A200AF82C007120846AE82D007740F5EFD5306F0E4C4CEC4540F6ECE540FCE6ECE3039
:2009C200E30244F0E5246006ED7003EE7008E5247003ED700122E524600280028D06E52442
:2009E20060068F057F0080047D007F008D0A8E821204A4120167E5828583F09000EBF0E572
:200A0200F0A3F0228582251211F685822685832785F02874022526F9E43527FAAB2889821F
:200A22008A838BF0121F9CFB75F005A424B4F9740035F0FA89298A2A752B00752C027401D4
:200A42002526F52DE43527F52E85282F852D82852E83852FF0121F9C704EE525704A8526E0
:200A6200828527838528F0121F9C603C74012529F9E4352AFAAF2B8B82C007C002C0011281
:200A82000F69A882AB83ADF0FED001D002D00789828A838FF0E8121F3BA3EB121F3BA3EDFA
:200AA200121F3BA3EE121F3B74012529FDE4352AFEAF2B8D828E838FF0121F9CF9A3121FB7
:200AC2009CFAA3121F9CFBA3121F9C89828A838BF0C007C006C00512080EAC82D005D006BD
:200AE200D007EC70678D828E838FF0121F9CFDA3121F9CFEA3121F9CFFA3121F9CFB8526FE
:200B0200828527838528F0121F9CF53C8D828E838FF0EB120D38852982852A83852BF01292
:200B22001F9CFF5307FB8526828527838528F0121F9C25E025E0FE4207852982852A8385A6
:200B42002BF0EF121F3B752C02020C03E4FEFF7401B5252EC004120167AB82AD83D0047428
:200B6200032526F8E43527F9AA28888289838AF0121F9CF8A3121F9CF9EBC398FEED99FF9B
:200B820080497402B52544C0041211FDAA82AB83ADF0D00474032AFAE43BFB8A828B838DEB
:200BA200F0121F9CFAA3121F9CFB74032526F8E43527F9AD28888289838DF0121F9CF8A34E
:200BC200121F9CF9EAC398FEEB99FFBC0102801BBC022E8525538E548F55852982852A831C
:200BE200852BF0121D9485822C80168525458E468F47852982852A83852BF0121B2D8582CB
:200C02002C1204BE7402B5250DE52C30E20512132B8003121215E52C5403600D1211EFADAD
:200C220082AE83AFF0E4121F3BE52C30E103021233E52C30E011852D82852E83852FF074F0
:200C420001121F3B0213DF221211E8E582700D1211E1E5826006758201020A061211E8E555
:200C620082601A1211E1E5826008758202120A0680EA121215758200120A0680DF22E582E4
:200C8200FF75F005A424B4FD740035F0FE8D318E32753300E5306003020D1A853182853223
:200CA200838533F0121F9CFB30E26D74012531F539E43532F53A85333B853982853A838553
:200CC2003BF0121F9CFBA3121F9CFCA3121F9CFDA3121F9CFE753C008B828C838DF0EE128E
:200CE2000D388531828532838533F0121F9CFE5306FB8531828532838533F0EE121F3B857B
:200D02003982853A83853BF0E4121F3BA3121F3BA3121F3BA3021F3B8530347535008F365F
:200D2200120167E5828583F0F53785F03890003475F0400212CFAC82AD83AEF0FF780079C7
:200D4200008E02741F5FFBB8000BB90008BAFF05BB1F02805CE4F8F9FA741F5FFB6030E5E9
:200D62003C60178B82C007C006C005C0041210F3D004D005D006D00780158B82C007C00601
:200D8200C005C00412110CD004D005D006D00779008E028A00E8FB6018853C228B82C0079E
:200DA200C006C005C00412088BD004D005D006D0078D0189038C028A3D741F553DF53EA878
:200DC2003D5300E07900B8C005B90002800BB8E005B90002803E020E6FE53C700122BB0061
:200DE20002800BBB01028012BB0202801322853E821210D67582000210EA853E82021126F2
:200E0200A83E88F005F07401800225E0D5F0FBF5820210EA5302078B007900E828F8E933CA
:200E2200F9E828F8E933F9530418E4FDFEFFEDC423CCC423541F6CCC541FCC6CCCFDEEC4F5
:200E42002354E04DFDEFC423CEC423541F6ECE541FCE6ECEEC48FEED49FFBA0133E53C7052
:200E620002FEFF8E608F617582000204D0EB6008853C228B8212088BE53D6009853C2485E9
:200E82003D821209A2E53C7007F523F58202094A22AC82AD83AEF0FF753C018C828D838EDD
:200EA200F0EFC007C006C005C004120D381204BED004D005D006D007753C008C828D838E5D
:200EC200F0EF120D380204BEE582FF75F005A424B4FD740035F0FC7E008D828C838EF0120C
:200EE2001F9CFBF9530102E4A2E713C913C9E9B53F1D74015BB53F012274FE5B453F8D8285
:200F02008C838EF0121F3B853F118F820214605303FDE53F25E042038D828C838EF0EB0230
:200F22001F3B7F0BEF60141FEF75F005A424B4F582740035F0F583E4F080E97F08EF600FCA
:200F42001FEF24EFF582E43400F583E4F080EE1219BD1213F30201D41201DF9000051201B4
:070F62004D1215E6020C4AD6
:0A00A9009000EDE4F09000EE04F08A
:200F6900AF827DFF7EFF8E0B8E0CEF2F25E0FF7A028A82C007C006C005C002121179E5824A
:200F8900D002D005D006D0077003021019EA75F02CA424F4F8741F35F0F9EF28F582E439CB
:200FA900F583E493F50DA3E493F50EA3E493F50FA3E493F510C4540FF879007B007C00B896
:200FC9000E2CB90029BB0026BC00238D038E04E4BBFF04BCFF0104FBA90BAC0CE4B9FF04A1
:200FE900BCFF01046B6007900000E4F5F0228D038E04BBFF0BBCFF08AB0FAC108B058C0699
:20100900AB0BAC0CBBFF09BCFF06850D0B850E0C8A041AEC601A8D038E04BBFF06BCFF03EB
:20102900020F7AAB0BAC0CBBFF06BCFF03020F7A8D048E07BCFF07BFFF047D007E00AB0B4A
:20104900AC0CBBFF08BCFF05E4F50BF50C8E048D077D007E00A80BA90CE4FAFBE84205E9EE
:201069004206EA4207EB42048D828E838FF0EC227F027E02EE60198E82C007C0061211796D
:20108900E582D006D00760038F82221E8E0780E4758200227F007E00BE0300502B8EF005B1
:2010A900F07C017D008006EC2CFCED33FDD5F0F79000EEE0FB7A005204EA5205EC4D6003C4
:2010C9008F82220E8E0780D07582002222AF828FF005F07401800225E0D5F0FBF5820211BB
:2010E9003DE5829000EDF00210D5AF828FF005F07401800225E0D5F0FBFF9000EDE04FF0F3
:201109000210D5AF828FF005F07401800225E0D5F0FBF4FF9000EDE05FF00210D5AF82C007
:20112900071211AEE582D00760058F820210F38F8202110CE5829000EEF00210D5AF828F69
:20114900F005F07401800225E0D5F0FBFF9000EEE04FF00210D5AF828FF005F074018002C6
:2011690025E0D5F0FBF4FF9000EEE05FF00210D5AF829000EEE0FE9000EDE042068FF00564
:20118900F07F017D008006EF2FFFED33FDD5F0F77C00EE5207EC5205EF4DB40100B392029F
:2011A900E433F58222AF829000EEE0FE9000EDE042068FF005F07F017D008006EF2FFFED43
:1811C90033FDD5F0F77C00EE5207EC5205E4BF0004BD000104F582221A
:2011E1009000B1E0F582229000B2E0F582229000B375F0002290001175F000229000B1E066
:2012010075F005A42411FEE43400FF7D008E828F838DF0229000B2E07001229000B1E0FF62
:201221000F9000B1EFF09000B2E0FF1F9000B2EFF0229000B1E07001227F009000B1E0FEA9
:201241007D009000B2E07B002EFEEB3DFD1EBEFF011D8F037C00C3EB9EEC64808DF063F02F
:201261008095F05052EF75F005A42411FDE43400FE7A0074012BF560E43CF561900005C047
:2012810007C006C005C002121F56AB82AC83D002D005D006EB2411FBEC3400FC8B608C618A
:2012A1007562007563057564008D828E838AF0121EE6D0070F80849000B2E0FF9000B1E0C4
:2012C100FE1EEE2F9000B2F09000B1E4F022AD82AE83AFF09000B1E0FC7B009000B2E0F9B9
:2012E1007A00E92CF560EA3BF561900005C007C006C005121F56AB82AC83D005D006D00742
:20130100EB2411FBEC3400FC7A008D608E618F627563058A648B828C838AF0121EE6900047
:20132100B2E0FF0F9000B2EFF0229000B2E07001227F009000B2E0FE7D001EBEFF011D8F70
:20134100037C00C3EB9EEC64808DF063F08095F040030213D39000B1E0FE7D00EB2EF560E7
:20136100EC3DF561900005C007C004C003121F56AD82AE83D003D004ED2411FDEE3400FE3D
:201381007A009000B1E0F87900EB28FBEC39FC74012BF560E43CF561900005C006C005C0C6
:2013A10002121F56AB82AC83D002D005D006EB2411FBEC3400FC8B608C6175620075630507
:2013C1007564008D828E838AF0121EE6D0070F0213349000B2E0FF1F9000B2EFF022900041
:2013E100B2E0FF9000B1E02F9000B2F09000B1E4F0229000B1E4F09000B2F09000B3F02206
:20140100AF82900000E0FE7D001EBEFF011D8F037C00C3EB9EEC64808DF063F08095F05067
:2014210032EF2F2401FEE43400FD7C008F030BEB2B2401FBE43400FA8B608A618C62756326
:20144100028C648E828D838CF0C007121EE6D0070F80AF900000E0FF1F900000EFF0228567
:201461008212E511700302152E7E02EE60701EEE75F006A4FCADF0248DF582ED3420F58356
:20148100E493FB74075B2402FBEC248DFCED3420FD74032CFCE43DFDEB60D01BEB2CF5828A
:2014A100E43DF583E493FAB512EE851213751400900000E0FE04900000F0EE2E2401FEE424
:2014C1003400FD7C007560138C617562407563028C648E828D838CF0121EE60215E67E007B
:2014E100900000E0FDC3EE9D503AEE2EFD2401FBE43400FC8B828C83A3E0FCBCFF02802160
:20150100ED2401F582E43400F583E0FD7530018D82C006120C80D0068E82C006121401D018
:20152100060E80BC753001851282020C807E007D00900000E0FCC3ED9C40030215DDED2D09
:20154100FC2401F582E43400F583E0FBB5120280030215D7EC2401FCE43400FB8C828B8311
:20156100A3E0FCBCFF03D38001C392038E82C006121401D0063003030215E67C007B00C3C1
:20158100EB9E5047EB2B2401FAE43400FF8A828F83A3E0FFBFFF030C802EEC2C2401F5820F
:2015A100E43400F583E0FF7530018F82C006C004C003120C80D003D0048C82C004C00312CB
:2015C1001401D003D004D0060B80B4753001851282120C8080060D8D060215327530008543
:2015E1001282020C80900000E0FFEF602E1FEF2F2401FEE43400FD0EBE00010D8E047E007D
:201601008C828D838EF0121F9CFBBBFF0280DB8C828D838EF0E4121F3B80CF75150074FE17
:2016210025155003021973751600E51575F006A4FCADF0248DF582ED3420F583E493FB749A
:20164100075B2402F517EC248DFCED3420FD74032CFCE43DFD7A00C3EA951740030216E44F
:20166100EA2CF582E43DF583E493F97800900000E0FFC3E89F5068E828FF2401F582E43427
:2016810000F583E0FBE9B50353E51575F003A4F51985F01A240BF582E51A3400F583E0FB33
:2016A100BB02028023EF2401FFE43400FB8F828B83A3E0FFBFFF11E519240BF582E51A345A
:2016C10000F583E4F002196E8A078FF005F07401800225E0D5F0FBFF4216800308808E0A79
:2016E100021658C204E51575F003A4FDAFF0240BF582EF3400F583E0FCBC01028003021799
:2017010086E516700FED240BF582EF3400F583E4F002196EC007C005120167AB82AC83D00B
:2017210005D007ED240BF9EF3400FA89828A83A3E0F9A3E0FAEBC399FBEC9AFCE51575F066
:2017410006A4248DF9742035F0FA89828A83A3E493F97A00C3EB99EC9A400302196E8517A7
:20176100F005F07B017C008006EB2BFBEC33FCD5F0F71BBBFF011CA9167A00E9B50306EA61
:20178100B50402D204ED240BF582EF3400F583E0FCBC020302184FE51575F006A4248DFBCE
:2017A100742035F0FC74032BFBE43CFC751800C3E5189517400302184F8518F005F078011A
:2017C10079008006E828F8E933F9D5F0F7AA167E00EA5200EE5201E849606EE5182BF582D7
:2017E100E43CF583E493FE7A00900000E0F9C3EA995056EA2AF92401F582E43400F583E0F3
:20180100F8EEB5004130041AC003C004E92401F8E43400FC88828C83A374FFF0D004D00336
:201821008027C003C004E92401F8E43400F908B800010988828983E0FC0C88828983ECF0A8
:20184100D004D00380030A80A005180217B0ED240BFCEF3400FE8C828E83E07039E5166011
:2018610035ED240BF582EF3400F5837401F0ED240BFCEF3400FE0CBC00010EC006C00412F3
:201881000167AA82AB83D004D0068C828E83EAF0EBA3F002196EED240BF582EF3400F583AD
:2018A100E0FEBE013230042FED240BF582EF3400F5837402F0E51575F006A4248DFC742017
:2018C10035F0FE8C828E83A3A3E493FE7530018E82120C8002196EED240BF582EF3400F582
:2018E10083E0FEBE0202800302196EE51575F006A4FCAEF0248DF582EE3420F583E493308C
:20190100E30CE4B5160474018001E4FB8037C004C0068517F005F079017A008006E929F908
:20192100EA33FAD5F0F719B9FF011AA8167E00E8B50107EEB50203D38001C3B39205E433E6
:20194100FBD006D004EB6025ED240BF582EF3400F583E4F0EC248DFCEE3420FE8C828E8377
:20196100A3A3E493FF7530008F82120C80051502161F7F00900000E0FEC3EF9E503DEF2F1D
:20198100FE2401FCE43400FD8C828D83A3E0FDBDFF030F80DFED7023EE2401F582E4340025
:2019A100F583E0FE7530018E82C007120C80D0078F82C007121401D00780B9227F02EF60DD
:1B19C100141FEF75F003A4240BF582740035F0F583E4F080E9900000E4F02263
:2019DC00AC82AD83AEF0FFEE7003EF6006EC7007ED7004C2068002D206A206E433F58222FC
:2019FC00AD82AE83AFF074032DFDE43EFEAB407C007560028C618B828C83C007C006C00572
:201A1C00C004C003121FB8A982AA83D003D004D005D006D007E92DFDEA3EFE8D828E838FD1
:201A3C00F0121F9CFFEB30E007EFC4540FF58222740F5FF5822275820022E58260588544A1
:201A5C00607561038541828542838543F0121A52AF8274012541FCE43542FDAE438C828D7D
:201A7C00838EF0121F9CA3121F9CA3121F9CFAA3121F9CFB7800790053031F8C828D838E25
:201A9C00F0E8121F3BA3E9121F3BA3EA121F3BA3EB121F3B8053854460756102854182855A
:201ABC0042838543F0121A52AF8274012541FCE43542FDAE438C828D838EF0121F9CF8A3BA
:201ADC00121F9CF9A3121F9CA3121F9C7A007B008C828D838EF0E8121F3BA3E9121F3BA3C4
:201AFC00EA121F3BA3EB121F3BEF6021AD41AE42AF438D828E838FF0121F9CFC4304048DFA
:201B1C00828E838FF0EC121F3B7582022275820122AD82AE83AFF0C007C006C0051211F6A0
:201B3C0085824885834985F04AD005D006D00774012DF8E43EF98F04888289838CF0121F9D
:201B5C009CA3121F9CA3121F9CA3121F9C54E0C4035407F8E4E875F009A42478F54B7420E1
:201B7C0035F0F54CC007C006C0051211EF85824D85834E85F04FD005D006D007E5464547D8
:201B9C00604B854D82854E83854FF0121F9C703D854B82854C83A3E493F9A3E493FA496020
:201BBC002CA846AC47C3E899EC9A4021854B82854C83E493FC74015CFBBB0103EB8001E4DD
:201BDC00F5828D418E428F438C44021A56E4B54502800A7402B54502801C021D78854B825F
:201BFC00854C83E493F5607561018D828E838FF0121A52021D78C007C006C0051211FD8527
:201C1C00825085835185F052D005D006D00774022548F8E43549F9AC4A888289838CF01264
:201C3C001F9CF874022550FAE43551FBAC528A828B838CF0121F9CFCE8B50403D38001C373
:201C5C009207854D82854E83854FF0121F9CFB6003021D78200703021D1185508285518395
:201C7C008552F0121F9C6003021D78854B82854C83E493F5607561028D828E838FF0C0070A
:201C9C00C006C005121A52E582D005D006D007603274012DFBE43EF98F028B8289838AF0C8
:201CBC00121F9CF8A3121F9CF9A3121F9CA3121F9C7A007B008B3C888289838AF0EB120DA4
:201CDC0038802E74012DFBE43EF98F028B8289838AF0121F9CF8A3121F9CF9A3121F9CA3E5
:201CFC00121F9C7A007B00888289838AF0EB120E9375820622A94BAA4C7B808C4089828A73
:201D1C00838BF0C007C006C0051219FCAC82D005D006D007EC30E0448550828551838552B9
:201D3C00F0121F9CFB8C01530104E4A2E713C913C9A2E713C913C9FA8B007B00E8B5011CCA
:201D5C00EBB50218530402854B82854C83E493F5448D418E428F438C82021A5675820022F5
:0600B3009000F77401F05B
:201D7C00FC7D007E007F00E4BCE00ABD0007BE0004BF000104F58222AD82AE83AFF0C0079E
:201D9C00C006C0051211F685825685835785F058D005D006D007E553701285568285578302
:201DBC008558F0121F9C7004758202220DBD00010E8D828E838FF0121F9CF55CA3121F9CD8
:201DDC00F55DA3121F9CF55EA3121F9CF55FA95EC4C9C4540F69C9540FC969C953010FABB5
:201DFC005DAC5E53040F9000F7E0FAC3995077A954AA55C3E99BEA9C506C7402B5530280F1
:201E1C000475820022C007C006C0051211FD85825985835A85F05BD005D006D00774022568
:201E3C0056F8E43557F9AC58888289838CF0121F9CF874022559FAE4355AFBAC5B8A828B7A
:201E5C00838CF0121F9CFAE8B5021B855982855A83855BF0121F9C7003F582229000F7E014
:201E7C0004F0758202228D828E838FF0121F9CFC7B009000F7E07A002CFCEA3BFB1CBCFF54
:201E9C00011BEC2CFCEB33FBEC2CFCEB33FBEC2481F582EB3420F583E493F9A3E493FAA3CA
:201EBC00E493FBA3E493FC8D828E838FF0E9121F3BA3EA121F3BA3EB121F3BA3EC121F3B9C
:0A1EDC009000F77401F075820122F6
:06007800E478FFF6D8FD5C
:201EE600AD82AE83AFF08D658E668F6785606885616985626AA863A9648803890418B8FF15
:201F06000119EB4C6025856882856983856AF0121F9CFCA38582688583698D828E838FF03B
:151F2600EC121F3BA3AD82AE8380CE8565828566838567F02225
:200056007900E94400601B7A00902128780175A000E493F2A308B8000205A0D9F4DAF27507
:02007600A0FFE9
:1B1F3B0020F71130F6138883A88220F509F6A8837583002280FEF280F5F022A5
:1D1F5600E5828560F0A4C582C0F08561F0A4D0F025F0C5838560F0A42583F5832245
:201F73007A10E4FBFCE58225E0F582E58333F583EB33FBEC33FCEB9560F5F0EC95614006D2
:091F9300FCABF0438201DADD220F
:20007E007800E84400600A790175A000E4F309D8FC7800E84400600C7900900001E4F0A380
:04009E00D8FCD9FAB7
:0D00490075816A121FF0E582600302004617
:1C1F9C0020F71430F6148883A88220F507E6A88375830022E280F7E49322E02254
:201FB800C2D5E58330E70DD2D5E4C39582F582E49583F583E56130E70DB2D5E4C39560F514
:181FD80060E49561F561121F7330D50BE4C39582F582E49583F58322E2
:041FF00075820022D4
:00000001FF
