:04000000020049327F
:03000B000200EB05
:0100130032BA
:01001B0032B2
:0100230032AA
:01002B0032A2
:01003300329A
:01003B003292
:030043000200AC0C
:0300A9000200460C
:0300460002012A8A
:2000AC00C021C0E0C0F0C082C083C007C006C005C004C003C002C001C000C0D075D000127B
:2000CC000456D0D0D000D001D002D003D004D005D006D007D083D082D0F0D0E0D02132C086
:2000EC0021C0E0C0F0C082C083C007C006C005C004C003C002C001C000C0D075D0001201FA
:20010C0080D0D0D000D001D002D003D004D005D006D007D083D082D0F0D0E0D021321201CC
:11012C006E12019812067F120C29D2AF120C5C80FB55
:20013D00AE82AF83EE4F6011E5C330E7FBE5C320E7FB1EBEFF011F80EB22C2A978168682A5
:20015D00088683D2A92275A15575A1AA2275A1002275A15575A1AA74F855B94406F5B9753D
:20017D00A10022758A30758CF878168606088607781674012EF6E43F08F622758A30758C2E
:0F019D00F84389017816E4F608F6D2A9D28C222D
:1801AC0075E200C2AF90000112013D02380075A15575A1AA43B1102207
:2001C400227F10EF6004001F80F922A297B39200E433F53D758200120BCFA296B39200E452
:2001E40033F53D758201120BCFA293B39200E433F53D758202120BCFA292B39200E433F585
:200204003D758203120BCFA291B39200E433F53D758204120BCFA290B39200E433F53D75DA
:050224008205020BCF72
:180F5A00110000000C0000000E00000004000000380000001E000000FA
:200229009000DFE024F750067E087F0080089000DFE0FDFE7F008EDDE5DD602B85080B85CA
:20024900090C750D8085DD0E750F009000CB75F000120EAD9000DFE0C395DDF0E5DD25089A
:20026900F508E43509F5092275DCC09000DFE4F09000CC75F000120F3AFF24F45003020357
:20028900F0EF240A83F582EF241083F583E4735A67F0AAF027B0F04D38F0CC030303030377
:2002A900030203030303039000CE75F000120F3AFFBF0102800ABF02028013BF2238801CAD
:2002C9009000DF7412F075087275090F80289000DF7422F075088475090F801A9000CF751B
:2002E900F000120F3AFF6002800C9000DF742DF07508A675090F9000DFE070030203F090C6
:2003090000D175F000120F3AFF9000DFE0FEC3EF9E50059000DFEFF043D102020229900031
:20032900CD75F000120F3A9000DFF053D1FD22E5E3547FFF9000CD75F000120F3A035480F7
:200349004FF5E322E5E32354019000CBF075DD01229000CBE4F09000CCF075DD02229000CA
:20036900CBE0FFBFA10280030203F09000CF75F000120F3AFF60030203F07F00BF080050E4
:200389001CEF24CBFDE43400FEEF24D5F582E43400F583E0FC8D828E83F00F80DF75DD08A4
:2003A900229000CBE0FFBFA13E9000CF75F000120F3AFF60028030A201E4339000CBF07590
:2003C900DD01229000CBE0FFBF211C9000CF75F000120F3AFF6002800E9000CD75F00012FC
:2003E9000F3A24FF92012243DC0F229000DFE0700122E5D130E10712022963DC4022748001
:2004090055E3FF9000DFE04FF5E32222AF82C2EAEF24D5F582E43400F583E0FFD2EA8F826A
:2004290022AF82C2EAEF24D5F582E43400F583E50AF0D2EA02044053D2FC2253D2FCE5D2C9
:2004490030E1FB2274FC55D24402F5D22220D90302065C75DD00E5D9540FFFADD9530530BF
:200469007E00BD0006BE000302065ABD2006BE0003020626BD3005BE0002800302065AEFB7
:20048900600302065A75DCC09000DFE4F09000CC75F000120F3AFE24F45003020621EE247A
:2004A9000A83F582EE241083F583E473839221D72147CD21735B21FB050506050605040644
:2004C900050506059000CE75F000120F3AFEBE0102800ABE02028013BE2238801C9000DF1F
:2004E9007412F075087275090F80289000DF7422F075088475090F801A9000CF75F0001266
:200509000F3AFE6002800C9000DF742DF07508A675090F9000DFE070030206219000D1752C
:20052900F000120F3AFE9000DFE0FDC3EE9D50059000DFEEF043D10212022902065A9000E8
:20054900CD75F000120F3AFE9000DFF053D1FD02065AE5E3547FFE9000CD75F000120F3A6F
:20056900035480FD4EF5E302065AE5E3235401FE9000CBF075DD0102065A9000CBE4F09019
:2005890000CCF075DD0202065A9000CBE0FEBEA10280030206219000CF75F000120F3AFE7D
:2005A90060030206217E00BE0800501CEE24CBFCE43400FDEE24D5F582E43400F583E0FB3F
:2005C9008C828D83F00E80DF75DD0802065A9000CBE0FEBEA1429000CF75F000120F3AFEE4
:2005E90060028034A201E433FE9000CBF075DD01805F9000CBE0FEBE211E9000CF75F000AD
:20060900120F3AFE600280109000CD75F000120F3AFE24FF9201803943DC0F8034BF000259
:200629008005BF012C80229000DFE06024E5D130E10812022963DC408017748055E3FF90EE
:2006490000DFE0FE4FF5E3800874FC55D24402F5D2C2D930D8139000DFE4F0D20175DC0262
:2006690075E300C2DAC2D9C2D810DA0122E5DA20E20375D8FF2243E20653E2FD7F08EF60D6
:200689001B1FEF24CBF582E43400F583E4F0EF24D5F582E43400F583E4F080E29000DFE4E6
:2006A900F0D20175E22975D18175DD0075ECCB75ED0075D30875EED575EF0075D21275EAA3
:0706C9004075E107D2EA22AF
:200F72001201100100000008FECABEBA00010000000109022200010100C0320904000001C2
:200F920003010100092111010001222D000705810308000105010906A101050719E029E749
:200FB2001500250175019508810295017508810195067508150025650507190029658100CE
:010FD200C05E
:0700A2009000C1E4F0A3F09F
:2006D0009000C1E0FEA3E08E82F5832275820022AF827E007D02BD080050378D82C007C085
:2006F00006C005120415AC82D005D006D007ECB5070AEE540F60028003ED4206EC7010EECD
:2007100054F0600280098D04ECC454F0FC42060D80C48E8222AF827E007D08ED70030207B1
:20073000CB1D8DF005F07B017C008006EB2BFBEC33FCD5F0F78F017A00E95203EA5204EB76
:200750004C604BE522601DED24C3FBE43400FCED24C3F582E43400F583E0FA0A8B828C8350
:20077000EAF0802AED24C3FBE43400FC8B828C83E0601BED24C3FBE43400FCED24C3F5825D
:20079000E43400F583E0FA1A8B828C83EAF0ED24C3FBE43400FC8B828C83E060067B017C92
:2007B0000080047B007C008D048CF005F0EB800225E0D5F0FBFB420602072B758200C00646
:2007D000120415AF82D006EFB50601228E0A75820002042AAF82758200C007120415AE8201
:2007F000D0077D00E5236005EF4EFD80327F08EF602D1FEF24C3FBE43400FC8B828C83E039
:2008100060067B017C0080047B007C008F048CF005F0EB800225E0D5F0FBFB420580D0EE39
:20083000B50501228D0A75820002042AAF82C0071206E0AE82D007740F5EFD5306F0E4C447
:20085000CEC4540F6ECE540FCE6ECE30E30244F0E5246006ED7003EE7008E5247003ED7093
:200870000122E524600280028D06E52460068F057F0080047D007F008D0A8E8212042A12CA
:200890000157E5828583F09000C1F0E5F0A3F022858225120CA285822685832785F028746D
:2008B000022526F9E43527FAAB2889828A838BF0120F3AFB75F005A424A3F9740035F0FA8B
:2008D00089298A2A752B00752C0274012526F52DE43527F52E85282F852D82852E83852F20
:2008F000F0120F3A704EE525704A8526828527838528F0120F3A603C74012529F9E4352A2C
:20091000FAAF2B8B82C007C002C001120C68A882AB83ADF0FED001D002D00789828A838F02
:20093000F0E8120F02A3EB120F02A3ED120F02A3EE120F0274012529FDE4352AFEAF2B8D2C
:20095000828E838FF0120F3AF9A3120F3AFAA3120F3AFBA3120F3A89828A838BF0C007C018
:2009700006C0051206DCE582D005D006D00770668D828E838FF0120F3AFDA3120F3AFEA353
:20099000120F3AFFA3120F3AFC8526828527838528F0120F3AF53C8D828E838FF0EC120BC6
:2009B0002D852982852A83852BF0120F3AFF5307FB8526828527838528F0120F3A25E025CB
:2009D000E0FE4207852982852A83852BF0EF120F02752C0280127401B52505120157800851
:2009F0007402B52503120CA91204447402B5250DE52C30E205120DD78003120CC1E52C5431
:200A100003600D120C9BAD82AE83AFF0E4120F02E52C30E103020CDFE52C30E011852D821F
:200A3000852E83852FF07401120F02020E8B22120C94E582700D120C8DE582600675820171
:200A50000208A0120C94E582601A120C8DE58260087582021208A080EA120CC175820012CA
:200A700008A080DF22E582FF75F005A424A3FD740035F0FE8D318E32753300E530600302CE
:200A90000B0F8531828532838533F0120F3AFB30E26D74012531F539E43532F53A85333BD7
:200AB000853982853A83853BF0120F3AFBA3120F3AFCA3120F3AFDA3120F3AFE753C008B71
:200AD000828C838DF0EE120B2D8531828532838533F0120F3AFE5306FB8531828532838502
:200AF00033F0EE120F02853982853A83853BF0E4120F02A3120F02A3120F02A3020F0285B2
:200B100030347535008F36120157E5828583F0F53785F03890003475F040020D7BAC82AD82
:200B300083AEF0FF780079008E02741F5FFBB8000BB90008BAFF05BB1F02802279008E024E
:200B50008A00E8FB6018853C228B82C007C006C005C004120725D004D005D006D0078D0178
:200B70008903EB600C853C228B82C004120725D004EC6008853C248C8212083CE53C700787
:200B9000F523F5820207E422AC82AD83AEF0FF753C018C828D838EF0EFC007C006C005C05D
:200BB00004120B2D120444D004D005D006D007753C008C828D838EF0EF120B2D020444E572
:200BD00082FF75F005A424A3FD740035F0FC7E008D828C838EF0120F3AFBF9530102E4A2D8
:200BF000E713C913C9E9B53D1D74015BB53D012274FE5B453D8D828C838EF0120F02853D99
:200C1000308F82020A755303FDE53D25E042038D828C838EF0EB020F027F06EF60141FEFB3
:200C300075F005A424A3F582740035F0F583E4F080E97F08EF600F1FEF24C3F582E43400A1
:180C5000F583E4F080EE120E9F0201C41201CF90000512013D020A3F3A
:200C6800E58275F004A4245AF582740F35F0F583E493FCA3E493FDA3E493FEA3E4938C8219
:050C88008D838EF022B7
:200C8D009000A0E0F582229000A1E0F582229000A275F0002290000075F000229000A0E014
:200CAD0075F005A42400FEE43400FF7D008E828F838DF0229000A1E07001229000A0E0FFEF
:200CCD000F9000A0EFF09000A1E0FF1F9000A1EFF0229000A0E07001227F009000A0E0FE58
:200CED007D009000A1E07B002EFEEB3DFD1EBEFF011D8F037C00C3EB9EEC64808DF063F09A
:200D0D008095F05052EF75F005A42400FDE43400FE7A0074012BF50BE43CF50C900005C05B
:200D2D0007C006C005C002120F1DAB82AC83D002D005D006EB2400FBEC3400FC8B0B8C0CE7
:200D4D00750D00750E05750F008D828E838AF0120EADD0070F80849000A1E0FF9000A0E087
:200D6D00FE1EEE2F9000A1F09000A0E4F022AD82AE83AFF09000A0E0FC7B009000A1E0F956
:200D8D007A00E92CF50BEA3BF50C900005C007C006C005120F1DAB82AC83D005D006D0078E
:200DAD00EB2400FBEC3400FC7A008D0B8E0C8F0D750E058A0F8B828C838AF0120EAD9000A4
:200DCD00A1E0FF0F9000A1EFF0229000A1E07001227F009000A1E0FE7D001EBEFF011D8F0E
:200DED00037C00C3EB9EEC64808DF063F08095F04003020E7F9000A0E0FE7D00EB2EF50B00
:200E0D00EC3DF50C900005C007C004C003120F1DAD82AE83D003D004ED2400FDEE3400FE45
:200E2D007A009000A0E0F87900EB28FBEC39FC74012BF50BE43CF50C900005C006C005C0DA
:200E4D0002120F1DAB82AC83D002D005D006EB2400FBEC3400FC8B0B8C0C750D00750E050E
:200E6D00750F008D828E838AF0120EADD0070F020DE09000A1E0FF1F9000A1EFF0229000B4
:200E8D00A1E0FF9000A0E02F9000A1F09000A0E4F0229000A0E4F09000A1F09000A2F022D6
:06007800E478FFF6D8FD5C
:200EAD00AD82AE83AFF08D108E118F12850B13850C14850D15A80EA90F8803890418B8FF05
:200ECD000119EB4C60258513828514838515F0120F3AFCA38582138583148D828E838FF0A0
:150EED00EC120F02A3AD82AE8380CE8510828511838512F022B7
:200056007900E94400601B7A00900FD3780175A000E493F2A308B8000205A0D9F4DAF2756E
:02007600A0FFE9
:1B0F020020F71130F6138883A88220F509F6A8837583002280FEF280F5F022EE
:1D0F1D00E582850BF0A4C582C0F0850CF0A4D0F025F0C583850BF0A42583F583228D
:20007E007800E84400600A790175A000E4F309D8FC7800E84400600C7900900001E4F0A380
:04009E00D8FCD9FAB7
:0D00490075813D120F56E5826003020046EE
:1C0F3A0020F71430F6148883A88220F507E6A88375830022E280F7E49322E022C6
:040F5600758200227E
:00000001FF
