:04000000020049327F
:03000B000200EB05
:0100130032BA
:01001B0032B2
:0100230032AA
:01002B0032A2
:01003300329A
:01003B003292
:030043000200AC0C
:0300A9000200460C
:0300460002012A8A
:2000AC00C021C0E0C0F0C082C083C007C006C005C004C003C002C001C000C0D075D000127B
:2000CC0004B2D0D0D000D001D002D003D004D005D006D007D083D082D0F0D0E0D02132C02A
:2000EC0021C0E0C0F0C082C083C007C006C005C004C003C002C001C000C0D075D0001201FA
:20010C0080D0D0D000D001D002D003D004D005D006D007D083D082D0F0D0E0D021321201CC
:11012C006E12019812072A120D77D2AF120DAD80FB08
:20013D00AE82AF83EE4F6011E5C330E7FBE5C320E7FB1EBEFF011F80EB22C2A9783F86827C
:20015D00088683D2A92275A15575A1AA2275A1002275A15575A1AA74F855B94406F5B9753D
:20017D00A10022758A30758CF8783F8606088607783F74012EF6E43F08F622758A30758CDC
:0F019D00F8438901783FE4F608F6D2A9D28C2204
:1801AC0075E200C2AF90000112013D02380075A15575A1AA43B1102207
:2001C400227F10EF6004001F80F922A297B39200E433F53E758200120D1DA294B39200E403
:2001E40033F53E758201120D1DA2B2B39200E433F53E758202120D1DA296B39200E433F5C0
:160204003E758203120D1DA295B39200E433F53E758204020D1D83
:2016EA0011000000F12D0000E9330000E92D0000F1380000E93300000332050001020304F6
:20021A009000F7E024F750067E087F0080089000F7E0FDFE7F008EDDE5DD602B850815859F
:20023A00091675178085DD187519009000D975F0001215DC9000F7E0C395DDF0E5DD250825
:20025A00F508E43509F5092275DCC09000F7E4F09000DA75F000121692FF24F450030204E0
:20027A001EEF240A83F582EF241083F583E4735C691ED81E29A11E4F3A1EFA030304030447
:20029A00030204030304039000DC75F000121692FFBF0102800ABF02028013BF2249801C3C
:2002BA009000F77412F075080A75091780399000F7743BF075081C750917802B9000DD7571
:2002DA00F000121692FF6005BF011C800E9000F7742DF0750857750917800C9000F774156F
:2002FA00F07508847509179000F7E0700302041E9000DF75F000121692FF9000F7E0FEC3AB
:20031A00EF9E50059000F7EFF043D10202021A9000DB75F0001216929000F7F053D1FD2203
:20033A00E5E3547FFF9000DB75F0001216920354804FF5E322E5E32354019000D9F075DD74
:20035A0001229000D9E4F09000DAF075DD02229000D9E0FFBFA102800302041E9000DD7520
:20037A00F000121692FF6008BF0102802A02041E7F00BF0800501CEF24D9FDE43400FEEF22
:20039A0024E3F582E43400F583E0FC8D828E83F00F80DF75DD08227F00BF0800501CEF249A
:2003BA00D9FDE43400FEEF24EDF582E43400F583E0FC8D828E83F00F80DF75DD08229000CA
:2003DA00D9E0FFBFA13E9000DD75F000121692FF60028030A201E4339000D9F075DD012288
:2003FA009000D9E0FFBF211C9000DD75F000121692FF6002800E9000DB75F0001216922476
:20041A00FF92012243DC0F229000F7E0700122E5D130E10712021A63DC4022748055E3FFFC
:20043A009000F7E04FF5E32222AF82C2EAEF24E3F582E43400F583E0FFD2EA8F8222AF82F7
:20045A00C2EAEF24E3F582E43400F583E50AF0D2EA02046E53D2FC2253D2FCE5D230E1FBA3
:20047A002274FC55D24402F5D222AF82C2EAEF75F002A424EDF582740035F0F583E515F020
:20049A00E516A3F0D2EA53D4FCE5D430E1FB2274FC55D44402F5D42220D90302070775DDC6
:2004BA0000E5D9540FFFADD95305307E00BD0006BE0003020705BD2006BE00030206C2BDB9
:2004DA003005BE00028003020705EF600302070575DCC09000F7E4F09000DA75F0001216B9
:2004FA0092FE24F450030206BDEE240A83F582EE241083F583E473F0FFBD72BDB429BDE043
:20051A00C8BD970505060606050506050506069000DC75F000121692FEBE0102800ABE02CF
:20053A00028013BE2249801C9000F77412F075080A75091780399000F7743BF075081C7541
:20055A000917802B9000DD75F000121692FE6005BE011C800E9000F7742DF07508577509F4
:20057A0017800C9000F77415F07508847509179000F7E070030206BD9000DF75F00012168D
:20059A0092FE9000F7E0FDC3EE9D50059000F7EEF043D10212021A0207059000DB75F00023
:2005BA00121692FE9000F7F053D1FD020705E5E3547FFE9000DB75F000121692035480FDCC
:2005DA004EF5E3020705E5E3235401FE9000D9F075DD010207059000D9E4F09000DAF075C9
:2005FA00DD020207059000D9E0FEBEA10280030206BD9000DD75F000121692FE6008BE0153
:20061A0002802C0206BD7E00BE0800501CEE24D9FCE43400FDEE24E3F582E43400F583E0C5
:20063A00FB8C828D83F00E80DF75DD080207057E00BE0800501CEE24D9FCE43400FDEE2404
:20065A00EDF582E43400F583E0FB8C828D83F00E80DF75DD080207059000D9E0FEBEA143E5
:20067A009000DD75F000121692FE60028035A201E433FE9000D9F075DD010207059000D9E4
:20069A00E0FEBE211E9000DD75F000121692FE600280109000DB75F000121692FE24FF92AC
:2006BA0001804843DC0F8043BF0002800ABF01028027BF0236802C9000F7E0602EE5D13034
:2006DA00E10812021A63DC408021748055E3FF9000F7E0FE4FF5E3801274FC55D24402F5AE
:2006FA00D2800874FC55D44402F5D4C2D930D8139000F7E4F0D20175DC0275E300C2DAC2F1
:20071A00D9C2D810DA0122E5DA20E20375D8FF2243E20653E2FD7F08EF60471FEF24D9F593
:20073A0082E43400F583E4F0EF24E3F582E43400F583E4F08F057E00751502F5168D828EA2
:20075A0083C0071216AEAD82AE83D007ED2DFDEE33FEED24EDF582EE3400F583E4F0A3F07C
:20077A0080B69000F7E4F0D20175E22975D18175DD0075ECD975ED0075D30875EEE375EFCC
:1C079A000075D21275EA4075D50875E4ED75E50075D41A75EB0475E107D2EA2257
:20170A001201100100000008FECABEBA00010000000109023B00020100C032090400000108
:20172A0003010100092111010001222D000705810308000109040100010300000009211128
:20174A000100012215000705820308000105010906A101050719E029E7150025017501959A
:20176A0008810295017508810195067508150025650507190029658100C0050C0901A101D7
:0F178A007510950426FF0319002AFF038100C084
:0700A2009000CFE4F0A3F091
:2007B6009000CFE0FEA3E08E82F5832275820022AF827E007D02BD080050378D82C007C090
:2007D60006C005120443AC82D005D006D007ECB5070AEE540F60028003ED4206EC7010EEB8
:2007F60054F0600280098D04ECC454F0FC42060D80C48E8222AF827E007D08ED70030208CA
:20081600B11D8DF005F07B017C008006EB2BFBEC33FCD5F0F78F017A00E95203EA5204EBA9
:200836004C604BE522601DED24D1FBE43400FCED24D1F582E43400F583E0FA0A8B828C834D
:20085600EAF0802AED24D1FBE43400FC8B828C83E0601BED24D1FBE43400FCED24D1F5824C
:20087600E43400F583E0FA1A8B828C83EAF0ED24D1FBE43400FC8B828C83E060067B017C9D
:200896000080047B007C008D048CF005F0EB800225E0D5F0FBFB4206020811758200C00678
:2008B600120443AF82D006EFB50601228E0A758200020458AF82758200C007120443AE8290
:2008D600D0077D00E5236005EF4EFD80327F08EF602D1FEF24D1FBE43400FC8B828C83E044
:2008F60060067B017C0080047B007C008F048CF005F0EB800225E0D5F0FBFB420580D0EE53
:20091600B50501228D0A758200020458AF82C0071207C6AE82D007740F5EFD5306F0E4C44B
:20093600CEC4540F6ECE540FCE6ECE30E30244F0E5246006ED7003EE7008E5247003ED70AC
:200956000122E524600280028D06E52460068F057F0080047D007F008D0A8E8212045812B5
:200976000157E5828583F09000CFF0E5F0A3F022858225120DF685822685832785F0287423
:20099600022526F9E43527FAAB2889828A838BF0121692FB75F005A424B1F9740035F0FA37
:2009B60089298A2A752B00752C0274012526F52DE43527F52E85282F852D82852E83852F39
:2009D600F0121692704EE525704A8526828527838528F0121692603C74012529F9E4352A87
:2009F600FAAF2B8B82C007C002C001120DBCA882AB83ADF0FED001D002D00789828A838FC7
:200A1600F0E8121631A3EB121631A3ED121631A3EE12163174012529FDE4352AFEAF2B8D6D
:200A3600828E838FF0121692F9A3121692FAA3121692FBA312169289828A838BF0C007C0B5
:200A560006C0051207C2E582D005D006D00770668D828E838FF0121692FDA3121692FEA3C7
:200A7600121692FFA3121692FC8526828527838528F0121692F53C8D828E838FF0EC120CC1
:200A960013852982852A83852BF0121692FF5307FB8526828527838528F012169225E02540
:200AB600E0FE4207852982852A83852BF0EF121631752C0280127401B52505120157800834
:200AD6007402B52503120DFD1204727402B5250DE52C30E205120F2B8003120E15E52C541B
:200AF60003600D120DEFAD82AE83AFF0E4121631E52C30E103020E33E52C30E011852D8258
:200B1600852E83852FF07401121631020FDF22120DE8E582700D120DE1E582600675820155
:200B3600020986120DE8E582601A120DE1E582600875820212098680EA120E157582001215
:200B5600098680DF22E582FF75F005A424B1FD740035F0FE8D318E32753300E530600302F2
:200B76000BF58531828532838533F0121692FB30E26D74012531F539E43532F53A85333BAB
:200B9600853982853A83853BF0121692FBA3121692FCA3121692FDA3121692FE753C008B0E
:200BB600828C838DF0EE120C138531828532838533F0121692FE5306FB85318285328385D5
:200BD60033F0EE121631853982853A83853BF0E4121631A3121631A3121631A302163185BD
:200BF60030347535008F36120157E5828583F0F53785F03890003475F040020ECFAC82AD47
:200C160083AEF0FF780079008E02741F5FFBB8000BB90008BAFF05BB1F02802279008E0267
:200C36008A00E8FB6018853C228B82C007C006C005C00412080BD004D005D006D0078D01AA
:200C560089038C028A3DA83D5300E07900B8E05CB900595302078B007900E828F8E933F989
:200C7600E828F8E933F9530418E4FDFEFFEDC423CCC423541F6CCC541FCC6CCCFDEEC42379
:200C960054E04DFDEFC423CEC423541F6ECE541FCE6ECEEC48FEED49FFBA0133E53C700221
:200CB600FEFF8E158F16758200020484EB6008853C228B8212080BE53D6009853C24853DBE
:200CD60082120922E53C7007F523F5820208CA22AC82AD83AEF0FF753C018C828D838EF0D9
:200CF600EFC007C006C005C004120C13120472D004D005D006D007753C008C828D838EF07D
:200D1600EF120C13020472E582FF75F005A424B1FD740035F0FC7E008D828C838EF0121608
:200D360092FBF9530102E4A2E713C913C9E9B53E1D74015BB53E012274FE5B453E8D828CD2
:200D5600838EF0121631853E0B8F820210605303FDE53E25E042038D828C838EF0EB021673
:200D7600317F06EF60141FEF75F005A424B1F582740035F0F583E4F080E97F08EF600F1F8A
:200D9600EF24D1F582E43400F583E4F080EE1215BD120FF30201C41201CF90000512013D8A
:060DB6001211E6020B25FC
:200DBC00E58275F004A424EAF582741635F0F583E493FCA3E493FDA3E493FEA3E4938C822D
:050DDC008D838EF02262
:200DE1009000AEE0F582229000AFE0F582229000B075F0002290000E75F000229000AEE079
:200E010075F005A4240EFEE43400FF7D008E828F838DF0229000AFE07001229000AEE0FF6F
:200E21000F9000AEEFF09000AFE0FF1F9000AFEFF0229000AEE07001227F009000AEE0FEBC
:200E41007D009000AFE07B002EFEEB3DFD1EBEFF011D8F037C00C3EB9EEC64808DF063F036
:200E61008095F05052EF75F005A4240EFDE43400FE7A0074012BF515E43CF516900005C0E4
:200E810007C006C005C00212164CAB82AC83D002D005D006EB240EFBEC3400FC8B158C163A
:200EA1007517007518057519008D828E838AF01215DCD0070F80849000AFE0FF9000AEE0C2
:200EC100FE1EEE2F9000AFF09000AEE4F022AD82AE83AFF09000AEE0FC7B009000AFE0F9C9
:200EE1007A00E92CF515EA3BF516900005C007C006C00512164CAB82AC83D005D006D007EF
:200F0100EB240EFBEC3400FC7A008D158E168F177518058A198B828C838AF01215DC9000D8
:200F2100AFE0FF0F9000AFEFF0229000AFE07001227F009000AFE0FE7D001EBEFF011D8F80
:200F4100037C00C3EB9EEC64808DF063F08095F04003020FD39000AEE0FE7D00EB2EF5153D
:200F6100EC3DF516900005C007C004C00312164CAD82AE83D003D004ED240EFDEE3400FEA2
:200F81007A009000AEE0F87900EB28FBEC39FC74012BF515E43CF516900005C006C005C063
:200FA1000212164CAB82AC83D002D005D006EB240EFBEC3400FC8B158C167517007518054D
:200FC1007519008D828E838AF01215DCD0070F020F349000AFE0FF1F9000AFEFF0229000AD
:200FE100AFE0FF9000AEE02F9000AFF09000AEE4F0229000AEE4F09000AFF09000B0F0221F
:20100100AF82900000E0FE7D001EBEFF011D8F037C00C3EB9EEC64808DF063F08095F0506B
:2010210032EF2F2401FEE43400FD7C008F030BEB2B2401FBE43400FA8B158A168C17751856
:20104100028C198E828D838CF0C0071215DCD0070F80AF900000E0FF1F900000EFF02285C9
:20106100820CE50B700302112E7E01EE60701EEE75F008A4FCADF02402F582ED3417F583FD
:20108100E493FB74075B2402FBEC2402FCED3417FD74032CFCE43DFDEB60D01BEB2CF58222
:2010A100E43DF583E493FAB50CEE850C0D750E00900000E0FE04900000F0EE2E2401FEE440
:2010C1003400FD7C0075150D8C167517407518028C198E828D838CF01215DC0211E67E0013
:2010E100900000E0FDC3EE9D503AEE2EFD2401FBE43400FC8B828C83A3E0FCBCFF02802164
:20110100ED2401F582E43400F583E0FD7530018D82C006120B5BD0068E82C006121001D046
:20112100060E80BC753001850C82020B5B7E007D00900000E0FCC3ED9C40030211DDED2D3D
:20114100FC2401F582E43400F583E0FBB50C0280030211D7EC2401FCE43400FB8C828B831F
:20116100A3E0FCBCFF03D38001C392028E82C006121001D0063002030211E67C007B00C3CF
:20118100EB9E5047EB2B2401FAE43400FF8A828F83A3E0FFBFFF030C802EEC2C2401F58213
:2011A100E43400F583E0FF7530018F82C006C004C003120B5BD003D0048C82C004C00312F5
:2011C1001001D003D004D0060B80B4753001850C82120B5B80060D8D06021132753000857B
:2011E1000C82020B5B900000E0FFEF602E1FEF2F2401FEE43400FD0EBE00010D8E047E00AD
:201201008C828D838EF0121692FBBBFF0280DB8C828D838EF0E412163180CF750F0074FF46
:20122100250F5003021573751000E50F75F008A4FCADF02402F582ED3417F583E493FB7446
:20124100075B2402F511EC2402FCED3417FD74032CFCE43DFD7A00C3EA951140030212E4F7
:20126100EA2CF582E43DF583E493F97800900000E0FFC3E89F5068E828FF2401F582E4342B
:2012810000F583E0FBE9B50353E50F75F003A4F51385F014240BF582E5143400F583E0FB4F
:2012A100BB02028023EF2401FFE43400FB8F828B83A3E0FFBFFF11E513240BF582E514346A
:2012C10000F583E4F002156E8A078FF005F07401800225E0D5F0FBFF4210800308808E0A87
:2012E100021258C203E50F75F003A4FDAFF0240BF582EF3400F583E0FCBC010280030213AC
:2013010086E510700FED240BF582EF3400F583E4F002156EC007C005120157AB82AC83D029
:2013210005D007ED240BF9EF3400FA89828A83A3E0F9A3E0FAEBC399FBEC9AFCE50F75F070
:2013410008A42402F9741735F0FA89828A83A3E493F97A00C3EB99EC9A400302156E851147
:20136100F005F07B017C008006EB2BFBEC33FCD5F0F71BBBFF011CA9107A00E9B50306EA6B
:20138100B50402D203ED240BF582EF3400F583E0FCBC020302144FE50F75F008A42402FB66
:2013A100741735F0FC74032BFBE43CFC751200C3E5129511400302144F8512F005F0780143
:2013C10079008006E828F8E933F9D5F0F7AA107E00EA5200EE5201E849606EE5122BF582E7
:2013E100E43CF583E493FE7A00900000E0F9C3EA995056EA2AF92401F582E43400F583E0F7
:20140100F8EEB5004130031AC003C004E92401F8E43400FC88828C83A374FFF0D004D0033B
:201421008027C003C004E92401F8E43400F908B800010988828983E0FC0C88828983ECF0AC
:20144100D004D00380030A80A005120213B0ED240BFCEF3400FE8C828E83E07039E5106025
:2014610035ED240BF582EF3400F5837401F0ED240BFCEF3400FE0CBC00010EC006C00412F7
:201481000157AA82AB83D004D0068C828E83EAF0EBA3F002156EED240BF582EF3400F583C5
:2014A100E0FEBE013230032FED240BF582EF3400F5837402F0E50F75F008A42402FC7417B4
:2014C10035F0FE8C828E83A3A3E493FE7530018E82120B5B02156EED240BF582EF3400F5B0
:2014E10083E0FEBE0202800302156EE50F75F008A4FCAEF02402F582EE3417F583E493302C
:20150100E30CE4B5100474018001E4FB8037C004C0068511F005F079017A008006E929F918
:20152100EA33FAD5F0F719B9FF011AA8107E00E8B50107EEB50203D38001C3B39204E433F1
:20154100FBD006D004EB6025ED240BF582EF3400F583E4F0EC2402FCEE3417FE8C828E830F
:20156100A3A3E493FF7530008F82120B5B050F02121F7F00900000E0FEC3EF9E503DEF2F51
:20158100FE2401FCE43400FD8C828D83A3E0FDBDFF030F80DFED7023EE2401F582E4340029
:2015A100F583E0FE7530018E82C007120B5BD0078F82C007121001D00780B9227F01EF600C
:1B15C100141FEF75F003A4240BF582740035F0F583E4F080E9900000E4F02267
:06007800E478FFF6D8FD5C
:2015DC00AD82AE83AFF08D1A8E1B8F1C85151D85161E85171FA818A9198803890418B8FF61
:2015FC000119EB4C6025851D82851E83851FF0121692FCA385821D85831E8D828E838FF0D9
:15161C00EC121631A3AD82AE8380CE851A82851B83851CF0222C
:200056007900E94400601B7A00901799780175A000E493F2A308B8000205A0D9F4DAF275A0
:02007600A0FFE9
:1B16310020F71130F6138883A88220F509F6A8837583002280FEF280F5F022B8
:1D164C00E5828515F0A4C582C0F08516F0A4D0F025F0C5838515F0A42583F5832239
:201669007A10E4FBFCE58225E0F582E58333F583EB33FBEC33FCEB9515F5F0EC951640067B
:09168900FCABF0438201DADD2222
:20007E007800E84400600A790175A000E4F309D8FC7800E84400600C7900900001E4F0A380
:04009E00D8FCD9FAB7
:0D0049007581401216E6E582600302004654
:1C16920020F71430F6148883A88220F507E6A88375830022E280F7E49322E02267
:2016AE00C2D5E58330E70DD2D5E4C39582F582E49583F583E51630E70DB2D5E4C39515F5BD
:1816CE0015E49516F51612166930D50BE4C39582F582E49583F58322E9
:0416E60075820022E7
:00000001FF
