:04000000020049327F
:03000B000200EB05
:0100130032BA
:01001B0032B2
:0100230032AA
:01002B0032A2
:01003300329A
:01003B003292
:030043000200AC0C
:0300A9000200460C
:0300460002012A8A
:2000AC00C021C0E0C0F0C082C083C007C006C005C004C003C002C001C000C0D075D000127B
:2000CC000417D0D0D000D001D002D003D004D005D006D007D083D082D0F0D0E0D02132C0C5
:2000EC0021C0E0C0F0C082C083C007C006C005C004C003C002C001C000C0D075D0001201FA
:20010C0080D0D0D000D001D002D003D004D005D006D007D083D082D0F0D0E0D021321201CC
:11012C006E120198120640120BEAD2AF120C1D80FB13
:20013D00AE82AF83EE4F6011E5C330E7FBE5C320E7FB1EBEFF011F80EB22C2A978168682A5
:20015D00088683D2A92275A15575A1AA2275A1002275A15575A1AA74F855B94406F5B9753D
:20017D00A10022758A30758CF878168606088607781674012EF6E43F08F622758A30758C2E
:0F019D00F84389017816E4F608F6D2A9D28C222D
:1801AC0075E200C2AF90000112013D02380075A15575A1AA43B1102207
:2001C400D2B3D290227F10EF6004001F80F922C2901201C9A2B3B39200E433F53D7582006E
:0601E400120B90D29022E4
:040F1B0011000000C1
:2001EA009000C6E024F750067E087F0080089000C6E0FDFE7F008EDDE5DD602B85080B853C
:20020A00090C750D8085DD0E750F009000B275F000120E6E9000C6E0C395DDF0E5DD25084A
:20022A00F508E43509F5092275DCC09000C6E4F09000B375F000120EFBFF24F45003020308
:20024A00B1EF240A83F582EF241083F583E4731B28B16BB1E871B10EF9B18D0303030303E9
:20026A00020203030203039000B575F000120EFBFFBF0102800ABF02028013BF2238801C47
:20028A009000C67412F075081F75090F80289000C67422F075083175090F801A9000B6754B
:2002AA00F000120EFBFF6002800C9000C6742DF075085375090F9000C6E070030203B19009
:2002CA0000B875F000120EFBFF9000C6E0FEC3EF9E50059000C6EFF043D1020201EA90003C
:2002EA00B475F000120EFB9000C6F053D1FD22E5E3547FFF9000B475F000120EFB03548002
:20030A004FF5E322E5E32354019000B2F075DD01229000B2E4F09000B3F075DD0222900054
:20032A00B2E0FFBFA10280030203B19000B675F000120EFBFF60030203B17F00BF08005013
:20034A001CEF24B2FDE43400FEEF24BCF582E43400F583E0FC8D828E83F00F80DF75DD0815
:20036A00229000B2E0FFBFA13E9000B675F000120EFBFF60028030A201E4339000B2F0755A
:20038A00DD01229000B2E0FFBF211C9000B675F000120EFBFF6002800E9000B475F00012C6
:2003AA000EFB24FF92012243DC0F229000C6E0700122E5D130E1071201EA63DC40227480D9
:2003CA0055E3FF9000C6E04FF5E32222AF82C2EAEF24BCF582E43400F583E0FFD2EA8F82DC
:2003EA0022AF82C2EAEF24BCF582E43400F583E50AF0D2EA02040153D2FC2253D2FCE5D261
:20040A0030E1FB2274FC55D24402F5D22220D90302061D75DD00E5D9540FFFADD95305303D
:20042A007E00BD0006BE000302061BBD2006BE00030205E7BD3005BE0002800302061BEFB4
:20044A00600302061B75DCC09000C6E4F09000B375F000120EFBFE24F450030205E2EE24AA
:20046A000A83F582EE241083F583E4734453E298E2088EE2341CE2BC05050505050504057A
:20048A00050505059000B575F000120EFBFEBE0102800ABE02028013BE2238801C9000C6D1
:2004AA007412F075081F75090F80289000C67422F075083175090F801A9000B675F000127D
:2004CA000EFBFE6002800C9000C6742DF075085375090F9000C6E070030205E29000B8758A
:2004EA00F000120EFBFE9000C6E0FDC3EE9D50059000C6EEF043D1021201EA02061B900019
:20050A00B475F000120EFBFE9000C6F053D1FD02061BE5E3547FFE9000B475F000120EFBB8
:20052A00035480FD4EF5E302061BE5E3235401FE9000B2F075DD0102061B9000B2E4F09008
:20054A0000B3F075DD0202061B9000B2E0FEBEA10280030205E29000B675F000120EFBFEC6
:20056A0060030205E27E00BE0800501CEE24B2FCE43400FDEE24BCF582E43400F583E0FBF0
:20058A008C828D83F00E80DF75DD0802061B9000B2E0FEBEA1429000B675F000120EFBFED4
:2005AA0060028034A201E433FE9000B2F075DD01805F9000B2E0FEBE211E9000B675F00037
:2005CA00120EFBFE600280109000B475F000120EFBFE24FF9201803943DC0F8034BF000232
:2005EA008005BF012C80229000C6E06024E5D130E1081201EA63DC408017748055E3FF9087
:20060A0000C6E0FE4FF5E3800874FC55D24402F5D2C2D930D8139000C6E4F0D20175DC02D3
:20062A0075E300C2DAC2D9C2D810DA0122E5DA20E20375D8FF2243E20653E2FD7F08EF6015
:20064A001B1FEF24B2F582E43400F583E4F0EF24BCF582E43400F583E4F080E29000C6E470
:20066A00F0D20175E22975D18175DD0075ECB275ED0075D30875EEBC75EF0075D21275EA14
:07068A004075E107D2EA22EE
:200F1F001201100100000008FECABEBA00010000000109022200010100C032090400000115
:200F3F0003010100092111010001222D000705810308000105010906A101050719E029E79C
:200F5F00150025017501950881029501750881019506750815002565050719002965810021
:010F7F00C0B1
:0700A2009000A8E4F0A3F0B8
:200691009000A8E0FEA3E08E82F5832275820022AF827E007D02BD080050378D82C007C0DD
:2006B10006C0051203D6AC82D005D006D007ECB5070AEE540F60028003ED4206EC7010EE4C
:2006D10054F0600280098D04ECC454F0FC42060D80C48E8222AF827E007D08ED70030207F1
:2006F1008C1D8DF005F07B017C008006EB2BFBEC33FCD5F0F78F017A00E95203EA5204EBF5
:200711004C604BE522601DED24AAFBE43400FCED24AAF582E43400F583E0FA0A8B828C83C1
:20073100EAF0802AED24AAFBE43400FC8B828C83E0601BED24AAFBE43400FCED24AAF582E7
:20075100E43400F583E0FA1A8B828C83EAF0ED24AAFBE43400FC8B828C83E060067B017CEA
:200771000080047B007C008D048CF005F0EB800225E0D5F0FBFB42060206EC758200C006C5
:200791001203D6AF82D006EFB50601228E0A7582000203EBAF82758200C0071203D6AE8200
:2007B100D0077D00E5236005EF4EFD80327F08EF602D1FEF24AAFBE43400FC8B828C83E091
:2007D10060067B017C0080047B007C008F048CF005F0EB800225E0D5F0FBFB420580D0EE79
:2007F100B50501228D0A7582000203EBAF82C0071206A1AE82D007740F5EFD5306F0E4C406
:20081100CEC4540F6ECE540FCE6ECE30E30244F0E5246006ED7003EE7008E5247003ED70D2
:200831000122E524600280028D06E52460068F057F0080047D007F008D0A8E821203EB1249
:200851000157E5828583F09000A8F0E5F0A3F022858225120C6385822685832785F0287404
:20087100022526F9E43527FAAB2889828A838BF0120EFBFB75F005A424A3F9740035F0FA0A
:2008910089298A2A752B00752C0274012526F52DE43527F52E85282F852D82852E83852F5F
:2008B100F0120EFB704EE525704A8526828527838528F0120EFB603C74012529F9E4352AEB
:2008D100FAAF2B8B82C007C002C001120C29A882AB83ADF0FED001D002D00789828A838F81
:2008F100F0E8120EC3A3EB120EC3A3ED120EC3A3EE120EC374012529FDE4352AFEAF2B8D6C
:20091100828E838FF0120EFBF9A3120EFBFAA3120EFBFBA3120EFB89828A838BF0C007C057
:2009310006C00512069DE582D005D006D00770668D828E838FF0120EFBFDA3120EFBFEA351
:20095100120EFBFFA3120EFBFC8526828527838528F0120EFBF53C8D828E838FF0EC120AC6
:20097100EE852982852A83852BF0120EFBFF5307FB8526828527838528F0120EFB25E025C9
:20099100E0FE4207852982852A83852BF0EF120EC3752C0280127401B525051201578008D0
:2009B1007402B52503120C6A1204057402B5250DE52C30E205120D988003120C82E52C546C
:2009D10003600D120C5CAD82AE83AFF0E4120EC3E52C30E103020CA0E52C30E011852D821D
:2009F100852E83852FF07401120EC3020E4C22120C55E582700D120C4EE5826006758201AE
:200A1100020861120C55E582601A120C4EE582600875820212086180EA120C827582001244
:200A3100086180DF22E582FF75F005A424A3FD740035F0FE8D318E32753300E5306003024C
:200A51000AD08531828532838533F0120EFBFB30E26D74012531F539E43532F53A85333B96
:200A7100853982853A83853BF0120EFBFBA3120EFBFCA3120EFBFDA3120EFBFE753C008BB0
:200A9100828C838DF0EE120AEE8531828532838533F0120EFBFE5306FB85318285328385C1
:200AB10033F0EE120EC3853982853A83853BF0E4120EC3A3120EC3A3120EC3A3020EC38531
:200AD10030347535008F36120157E5828583F0F53785F03890003475F040020D3CAC82AD01
:200AF10083AEF0FF780079008E02741F5FFBB8000BB90008BAFF05BB1F02802279008E028E
:200B11008A00E8FB6018853C228B82C007C006C005C0041206E6D004D005D006D0078D01F7
:200B31008903EB600C853C228B82C0041206E6D004EC6008853C248C821207FDE53C700746
:200B5100F523F5820207A522AC82AD83AEF0FF753C018C828D838EF0EFC007C006C005C0DB
:200B710004120AEE120405D004D005D006D007753C008C828D838EF0EF120AEE020405E5AF
:200B910082FF75F005A424A3FD740035F0FC7E008D828C838EF0120EFBFBF9530102E4A257
:200BB100E713C913C9E9B53D1D74015BB53D012274FE5B453D8D828C838EF0120EC3853D18
:200BD100308F82020A365303FDE53D25E042038D828C838EF0EB020EC37F01EF60141FEF77
:200BF10075F005A424A3F582740035F0F583E4F080E97F08EF600F1FEF24AAF582E43400FA
:180C1100F583E4F080EE120E600201C41201D390000512013D020A00F3
:200C2900E58275F004A4241BF582740F35F0F583E493FCA3E493FDA3E493FEA3E4938C8297
:050C49008D838EF022F6
:200C4E009000A0E0F582229000A1E0F582229000A275F0002290000075F000229000A0E053
:200C6E0075F005A42400FEE43400FF7D008E828F838DF0229000A1E07001229000A0E0FF2E
:200C8E000F9000A0EFF09000A1E0FF1F9000A1EFF0229000A0E07001227F009000A0E0FE97
:200CAE007D009000A1E07B002EFEEB3DFD1EBEFF011D8F037C00C3EB9EEC64808DF063F0D9
:200CCE008095F05052EF75F005A42400FDE43400FE7A0074012BF50BE43CF50C900005C09B
:200CEE0007C006C005C002120EDEAB82AC83D002D005D006EB2400FBEC3400FC8B0B8C0C67
:200D0E00750D00750E05750F008D828E838AF0120E6ED0070F80849000A1E0FF9000A0E005
:200D2E00FE1EEE2F9000A1F09000A0E4F022AD82AE83AFF09000A0E0FC7B009000A1E0F995
:200D4E007A00E92CF50BEA3BF50C900005C007C006C005120EDEAB82AC83D005D006D0070D
:200D6E00EB2400FBEC3400FC7A008D0B8E0C8F0D750E058A0F8B828C838AF0120E6E900022
:200D8E00A1E0FF0F9000A1EFF0229000A1E07001227F009000A1E0FE7D001EBEFF011D8F4D
:200DAE00037C00C3EB9EEC64808DF063F08095F04003020E409000A0E0FE7D00EB2EF50B7E
:200DCE00EC3DF50C900005C007C004C003120EDEAD82AE83D003D004ED2400FDEE3400FEC5
:200DEE007A009000A0E0F87900EB28FBEC39FC74012BF50BE43CF50C900005C006C005C01A
:200E0E0002120EDEAB82AC83D002D005D006EB2400FBEC3400FC8B0B8C0C750D00750E058D
:200E2E00750F008D828E838AF0120E6ED0070F020DA19000A1E0FF1F9000A1EFF022900071
:200E4E00A1E0FF9000A0E02F9000A1F09000A0E4F0229000A0E4F09000A1F09000A2F02215
:06007800E478FFF6D8FD5C
:200E6E00AD82AE83AFF08D108E118F12850B13850C14850D15A80EA90F8803890418B8FF44
:200E8E000119EB4C60258513828514838515F0120EFBFCA38582138583148D828E838FF01F
:150EAE00EC120EC3A3AD82AE8380CE8510828511838512F02236
:200056007900E94400601B7A00900F80780175A000E493F2A308B8000205A0D9F4DAF275C1
:02007600A0FFE9
:1B0EC30020F71130F6138883A88220F509F6A8837583002280FEF280F5F0222E
:1D0EDE00E582850BF0A4C582C0F0850CF0A4D0F025F0C583850BF0A42583F58322CD
:20007E007800E84400600A790175A000E4F309D8FC7800E84400600C7900900001E4F0A380
:04009E00D8FCD9FAB7
:0D00490075813D120F17E58260030200462D
:1C0EFB0020F71430F6148883A88220F507E6A88375830022E280F7E49322E02206
:040F170075820022BD
:00000001FF
